:03000000021B924E
:0C1B9200787FE4F6D8FD758121021BD994
:10002600C9BDB8DFD4C2D0A1CBAEC2E4CAAFB3F665
:1000360000B2E9BFB4C4D6D6D3CAB1BCE43A2020D4
:100046002000B5A5BBF753573420B7B5BBD8D6F7B4
:10005600D2B3002020BEAFB1A82121BEAFB1A821E6
:10006600212020002020D2C9CBC6BBF0D4D6212126
:1000760020202020002020B0B4CFC253573120BC0E
:10008600FCBCCCD0F800C7E5B7E7D0ECC0B4CBAE2B
:10009600B2A8B2BBD0CB0053573220D1A1D6D05391
:1000A600573120BDF8C8EB00312EBBF9B4A1CFD42F
:1000B600CABE20202020202000322ED0DEB8C4CA9E
:1000C600B1BCE420202020202000332EC9E8D6C36E
:1000D600C4D6D6D320202020202000312EBBF9B450
:1000E600A1CFD4CABE20202020D1A100322ED0DE3E
:1000F600B8C4CAB1BCE420202020D1A100332EC947
:10010600E8D6C3C4D6D6D320202020D1A100342ED1
:10011600C9E8D6C3C1E5C9F920202020D1A1003401
:100126002EC9E8D6C3C1E5C9F92020202020200029
:10013600352EBBF1C8A1CCECC6F820202020D1A1D9
:1001460000352EBBF1C8A1CCECC6F820202020201B
:100156002000362EB7B5BBD8202020202020202016
:10016600D1A100C7EBC1ACBDD3CAD6BBFA417070F2
:1001760020202000C7E7C0CACCECC6F820202020EB
:100186002020202000BCB4C4ABB5C4CCECCAC7C781
:10019600E7C0CACCEC00B6E0D4C6CCECC6F820204A
:1001A60020202020202000D7DCCEAAB8A1D4C6C4A7
:1001B600DCB1CEC8D5202000C9D9D4C6CCECC6F84F
:1001C600202020202020202000C7E7BCE4B6E0D471
:1001D600C6202020202020202000D2F5CCEC202094
:1001E600C4CFB7E720202020202000D5F3D3EA2073
:1001F600202020202020202020202000C7BFD5F34B
:10020600D3EA2020202020202020202000C0D7D57F
:10021600F3D3EA2020202020202020202000C7BF62
:10022600C0D7D5F3D3EA202020202020202000D0DC
:10023600A1D3EA20202020202020202020202000DA
:10024600B3AFC0B4BAAED3EACDEDC0B4B7E72020A1
:1002560000D6D0D3EA2020202020202020202020D5
:100266002000B4F3D3EA20202020202020202020C4
:10027600202000B1A9D3EA20202020202020202001
:1002860020202000B1A9D3EAC7E3C5E8CBAEC2FA65
:10029600CFAA202000B4F3B1A9D3EA202020202041
:1002A6002020202020002020D3EA202020202020EB
:1002B60020202020202000BCD7D2D2B1FBB6A1CE70
:1002C600ECBCBAB8FDD0C1C8C9B9EFD7D3B3F3D225
:1002D600FAC3AEB3BDCBC8CEE7CEB4C9EAD3CFD04E
:1002E600E7BAA5D5FDB6FEC8FDCBC4CEE5C1F9C6B5
:1002F600DFB0CBBEC5CAAEB6ACC0B0B3F5CAAED8D9
:10030600A5D2BBB6FEC8FDCBC4CEE5C1F9C6DFB0EB
:10031600CBBEC5CAAED0A1BAAEB4F3BAAEC1A2B412
:10032600BAD3EACBAEBEAAD5DDB4BAB7D6C7E5C353
:10033600F7B9C8D3EAC1A2CFC4D0A1C2FAC3A2D624
:10034600D6CFC4D6C1D0A1CAEEB4F3CAEEC1A2C7F5
:10035600EFB4A6CAEEB0D7C2B6C7EFB7D6BAAEC22A
:10036600B6CBAABDB5C1A2B6ACD0A1D1A9B4F3D1C2
:10037600A9B6ACD6C1202020202020202020202075
:100386002020202020202020202020202020202067
:070396002020202020D4C22A
:101DDE00EE93FC747E2EF8ECF275F002EDA42EF567
:101DEE0082E435F0F583E58222FFC4540F2430F2ED
:101DFE00EF540F243008F2227DFE7BFF7E007F1011
:101E0E0002077BE2FDC4540F75F00AA422F583E4A9
:101E1E000893F2EF25E025E022786EE2FE08E2FF5D
:0B1E2E0008E2FD227A0279467F0422C0
:09131F001220EB121F181200034A
:10132800785A7C007A03797B121E06121AF27BFE29
:101338007A00793F7F01121CA37BFE7A0079017F36
:1013480002121CA31219887F03121CA37A007926A3
:101358001214597859EFF26401700512100061DE19
:101368007859E2640270091214717800E2FF800C67
:101378007859E26403700A1214717F1312144C80B6
:0B138800557859E26404704E121F18E3
:10139300781AE2785A121DF708743AF27819E2784B
:1013A3005D121DF708743AF27818E2FFC4540F2453
:1013B300307860121DFD7BFF7A0079377F01121CA4
:1013C300A37BFE7A00795A7F02121CA37A00794824
:0B13D300121459786AEFF2640470B540
:1013DE00122033EF600E7F0A7E00121ED67800E2D6
:1013EE00FF12144C30910261281221743091026167
:1013FE00287F0A7E00121ED67F071214647F011208
:10140E00217D121F187BFF7A0079597F01121CA3D0
:10141E007BFF7A00796A7F02121CA37BFF7A007928
:10142E007B7F03121CA3121D827859EFF2640170A8
:0E143E00D47F0AFE121ED67F1312146461289A
:10144C007E00121ED67F0B7E00121ED6227BFF7FE3
:10145C0004121CA3121D82227E00121ED67F0B7E4C
:0C146C0000121ED6227F0AFE121ED6229D
:100B7A0078767C007A03798B121E0678867C007D53
:100B8A00FE7BFF7A03799B7E007F0212077B121F8E
:100B9A0018121AF27817121E1124D0FFE5F0340742
:100BAA00FEED540F7C002FFFEC3EFE786EF208EF4C
:100BBA00F27815121E11FCED540F2C7870F278148D
:100BCA00121E11FCED540F2C7871F2EF24FDFBEE8E
:100BDA0034FFFA7C007D0AAF03FE1208007872ED3A
:100BEA00F27C007D0CAF03AE021208007873EDF2BE
:100BFA0018E27003740AF27873E27003740CF2124A
:100C0A001E27788C74FEF2087400F2087474F27865
:100C1A0071E2FB122000121E2708E2FB121E39E4C1
:100C2A00FEEEC3940274809480400281FB7872E2E3
:100C3A0075F002121DEB24BBF582E5833402F583BD
:100C4A00E493FD74762EF8EDF27873E275F00212F1
:100C5A001DEB24CFF582E5833402F583E493FD741A
:100C6A00782EF8EDF27874E275F002121DEB24E7A3
:100C7A00F582E5833402F583E493FD747A2EF8ED68
:100C8A00F274862EF8E2FD747C2EF8EDF27875E2A5
:100C9A00FDD3940A748094805010900301121DDED3
:100CAA002405F582E583340380397875E2FDD3940F
:100CBA0013748094805010900303121DDE24F1F502
:100CCA0082E5833402801C7875E2FDD3941D74801A
:100CDA009480501AEE900305121DDF24DDF582E59B
:100CEA00833402F583E493FD74802EF8EDF20E81CD
:100CFA002BEF603625E025E0241BF582E43403F56A
:100D0A0083E47882121E1F241CF582E43403121E27
:100D1A001B241DF582E43403121E1B241EF582E4F3
:100D2A003403F583E49308F2800B78827420F20886
:100D3A00F208F208F27BFE7A00793F7F01121CA3C7
:100D4A007BFE7A0079017F02121CA37BFE7A00796E
:100D5A00767F03121CA37BFF7A00798C7F04121C16
:0B0D6A00A3121D82EF64046002619B75
:010D7500225B
:10100000786B7401F208F2121F18122185121D82EA
:10101000786DEFF26401704A786BE2FF6401606200
:10102000EF64027005120B7A8058786BE2640370EB
:1010300005120D76804C786BE26404700512119AEB
:101040008040786BE2640570051215C88034786BB7
:10105000E2640670051214788028786BE2640770E9
:101060002122786DE2FF7E006402700E786BE2044C
:10107000F2E26408700C04F28008EF64034E700220
:10108000214A786BE2640170091211707A0079AE1E
:10109000800E786BE2640270141211707A0079E1AC
:1010A0007F02121CA37BFF7A0079BF800E786BE26F
:1010B0006403701012114B7A0079F212117E7A00DB
:1010C00079D02143786BE26404701412114B7A00DA
:1010D00079BF7F03121CA37BFF7A01790321437838
:1010E0006BE26405701B7BFF7A0079AE7F01121CF6
:1010F000A37F021211867F031211647A0179148092
:1011000042786BE2640670157F011211867F02122D
:1011100011647F031211907A0179368026786BE290
:1011200064076002010A7BFF7A0079D07F01121CFC
:10113000A37BFF7F021211907A01794712117E7A08
:0A1140000179587F04121CA3010A74
:10114A00227BFF7A00799D7F01121CA37BFF7A0024
:10115A0079AE7F02121CA37BFF227BFF7A0079D033
:10116A00121CA37BFF227BFF7A00799D7F01121C50
:10117A00A37BFF227F03121CA37BFF227BFF7A0043
:10118A0079BF121CA3227A017925121CA37BFF22A4
:10147800121F187BFF7A0179697F01121CA3785823
:10148800E26419700D7A01797A1215A07A01798BC4
:10149800A12B7858E2641A700D7A01799C1215A074
:1014A8007A0179ADA12B7858E2641B70087BFF7A2A
:1014B8000179BE80587858E2641C70087BFF7A0175
:1014C80079CF80497858E2641D70087BFF7A0179EA
:1014D800E0803A7858E2641E70087BFF7A0179F15F
:1014E800802B7858E2641F70087BFF7A02790280AB
:1014F8001C7858E2642070087BFF7A027913800D0B
:101508007858E26421700A7BFF7A0279247F03A16C
:10151800927858E26422700F7A0279351215AA7A05
:101528000279467F04A1927858E26423700C7A020B
:1015380079571215AA121E3280507858E264247026
:101548000C7A0279681215B4121E32803D7858E27E
:101558006425700F7A0279791215B47A02798A7F34
:101568000480277858E26426700F7A02799B121556
:10157800BE7A02798A7F0480117858E26427700D58
:101588007A0279AC1215BE121E32121CA3121D82E9
:07159800EF64046002817B97
:10159F00227BFF7F03121CA37BFF227BFF7F0312A3
:1015AF001CA37BFF227BFF7F03121CA37BFF227BED
:0915BF00FF7F03121CA37BFF2235
:1018BC00D1A1D4F1D2F4C0D6202030337361766537
:1018CC0000312ECFB2BBB6C4E36265796F6E642073
:1018DC002B00322EC7A7C7A7E3DAB8E820202020B8
:1018EC00202000332ED7D3D2B9CBC4CAB1B8E8204C
:1018FC0020202000312ECFB2BBB6C4E36265796FD5
:10190C006E64202000322EC7A7C7A7E3DAB8E82000
:10191C00202020202B00332ED7D3D2B9CBC4CAB170
:10192C00B8E82020202B00342EB1BCC5DC202020B0
:10193C002020202020202B00342EB1BCC5DC202000
:10194C00202020202020202000352EB5B6BDA3C895
:10195C00F4C3CE20202020202B00352EB5B6BDA3FD
:10196C00C8F4C3CE20202020202000362EB8E8B3A7
:0C197C00AAD7E6B9FA20202020202B007A
:09215600007F117E1FDEFEDFFC9C
:01215F00225D
:0A0FF40000007F067E5DDEFEDFFCDC
:010FFE0022D0
:0A21350000007F167E80DEFEDFFC56
:01213F00227D
:09216000007F2C7E04DEFEDFFC92
:012169002253
:041ED600AD07AC06A2
:101EDA00E4FBFAC2AFD295122135C295122160D223
:101EEA0095ED30E00A122156C295120FF4800812BD
:101EFA000FF4C295122156ECC313FCED13FD0BBB74
:0D1F0A0000010AEB64084A70D6D295D2AFF0
:011F170022A7
:1015C800786E7401F27BFF7A1879BC7F01121CA334
:1015D800786EE2640170137BFF7A1879CD7F02126E
:1015E8001CA37BFF7A1879DE800E786EE2640270A5
:1015F800101216A17A1979111216C57A1879EFC145
:1016080071786EE2640370101216A17A1879DE12EE
:1016180016C57A1979228051786EE2640470167BB7
:10162800FF7A1879DE7F02121CA37F031216AF7AA5
:101638001979338034786EE2640570107F021216CF
:10164800AF7F031216BB7A197955801D786EE26454
:1016580006701B7BFF7F021216BB7A1979667F031F
:10166800121CA37BFF7A1979777F04121CA3121D21
:1016780082786FEFF27E006402700F18E204F2E2E3
:1016880064076002A1CD04F2A1CDEF64034E6002AD
:08169800A1CD786EE27800F2AA
:1016A000227BFF7A1979007F02121CA37BFF227B29
:1016B000FF7A1879EF121CA37BFF227A1979441262
:0D16C0001CA37BFF227F03121CA37BFF22D3
:101D8200D2A4D2A5D2A7D2A630A40930A50630A7E4
:101D92000320A64312217420A40778887401F280DC
:101DA2002220A50778887402F2801820A707788875
:101DB2007403F2800E20A60778887404F28004E48B
:101DC2007888F27888E2600C30A4FD30A5FA30A75A
:0B1DD200F730A6F41221747888E2FFBD
:011DDD0022E3
:0B214000E2FF122061852080C2A22275
:102061008F21A20F9200A20E9201A20D9202A20C48
:102071009203A20B9204A20A9205A2099206A20857
:03208100920722A1
:0A1CA3007888EBF208EAF208E9F293
:101CAD00EFFD7C0064017006087480F28025ED6400
:101CBD00024C7007788B7490F28018ED64034C70B1
:101CCD0007788B7488F2800BED64044C7005788B6B
:101CDD007498F2788BE2FF7D017C001220BDE478D0
:101CED008CF2788CE2C3941074809480501F7888A5
:101CFD00E2FB0808E2F92401F218E2FA3400F212CC
:0D1D0D0007A1FF122101788CE204F280D5BD
:011D1A0022A6
:10210100788DEFF2122114D2A0C2A1D2A2788D1241
:0321110021402248
:1020BD00788DEFF2ED4C6003122114C2A0C2A1D2B3
:0720CD00A2788D12214022D0
:10211400C2A0D2A1C2A27580FFD2A2E580540170F0
:02212400EF22A8
:101F1800122174D2A3C2A3D2A3121F46121F467F56
:101F28000C121F521221747F01121F5212217412B7
:101F380021747D017C007F061220BD022174E4FD1E
:101F4800FC7F301220BD122174227D017C001220FA
:021F5800BD22A8
:082174007F367EC7DEFEDFFCB2
:01217C002240
:1017D100D0DEB8C42D2DC4EA2020202020202020D6
:1017E10000D0DEB8C42D2DD4C220202020202020FE
:1017F1002000D0DEB8C42D2DC8D5202020202020E7
:10180100202000D0DEB8C42D2DCAB12020202020F8
:1018110020202000D0DEB8C42D2DB7D620202020D6
:101821002020202000D0DEB8C42D2DC3EB202020A5
:1018310020202020200031466C61673241646433EE
:1018410042756234524500C4D6D6D3D0DEB8C42D19
:101851002DC4EA2020202000C4D6D6D3D0DEB8C4BF
:101861002D2DD4C22020202000C4D6D6D3D0DEB85E
:10187100C42D2DC8D52020202000C4D6D6D3D0DE3B
:10188100B8C42D2DCAB12020202000C4D6D6D3D073
:10189100DEB8C42D2DB7D62020202000C4D6D6D343
:1018A100D0DEB8C42D2DC3EB2020202000818385FC
:0B18B10087898B8D80828486888A8C5A
:09216A0087110000150606002291
:101C1E00FEC4540F2430F2EE540F243008F2082282
:101C2E00FFC4540F2430F2EF22786EE2C39407748F
:101C3E0080948022EEC39408748094802274112FB5
:101C4E00F8E2FE744F2FF8EEF222FFC4540F243048
:101C5E00F2EF22EFD3940F7480948022E2FEC454EC
:101C6E000F243022E4FD7F8E121FA0E4222FF87481
:101C7E0020F20F22121A477BFE7A00791F7F022272
:101C8E00EF139293EFC313FFD2922214FCF2744F10
:051C9E002DF8ECF2221C
:041F9C002CF8E2FD3E
:101FA000C29400C29200D29400E4FE121C42500A75
:101FB000121C8E00C292000E80F1E4FE121C4250F0
:101FC00011ED139293EDC313FDD29200C292000E55
:051FD00080EAC294004C
:011FD50022E9
:101E8900C29400C29200D29400E4FDED121C4350AA
:101E99000A121C8E00C292000D80F000E4FDED12C2
:101EA9001C43501AA293E433FFC43333335480FCE8
:101EB900EEC3134CFED29200C292000D80E0C29490
:0C1EC90000D29200C29300D29300AF063A
:011ED50022EA
:10000300121C72FCEC121C3A500EEC9018B593FFC4
:0F0013007411121F9C0C80EC7D807F8E021FA049
:1020A200E4FBEB121C3A5012EB9018AE93FF121E97
:0A20B2008974112BF8EFF20B80E89F
:0120BC002201
:101AF2001220A2783F7432F2087430F27817E2783A
:101B020041121C2E121C26742DF27815E278441212
:101B12001C2E121C26742DF27814E27847121C58DF
:101B2200540F243008F27F0A121C615007743F12CE
:101B32001C7B80F47813E27801121C1E743AF2784E
:101B420012E27804121C1E743AF27811121C6A789E
:101B520007121C247420F27801E2FEB43004780AE1
:101B62008010EEB431117802E2C39432780A400256
:101B720080077441F28005780A7450F2780B744D34
:0F1B8200F27F0B121C6150077401121C7B80F460
:011B91002231
:101A4700781F7432F2087430F27855E27821121C4C
:101A570058121C26742DF27853E2FFC4540F243019
:101A67007824F2EF121C26742DF27852E2FFC45448
:101A77000F24307827F2EF540F243008F27F0A1230
:101A87001C615007741F121C7B80F47851121C6A6A
:101A9700782F121C24743AF27850121C6A7832128A
:101AA7001C24743AF2784F121C6A7835121C24747D
:101AB70020F2782FE2FEB4300478388010EEB4318B
:101AC700117830E2C394327838400280077441F2CB
:101AD700800578387450F27839744DF27F0B121CF8
:0A1AE700615007742F121C7B80F47D
:011AF10022D2
:100D7600E47870F21220A2E4786EF2121C37500E5C
:100D8600E2FF2411121C4E786EE204F280ED121F6F
:100D9600187870E270087BFF7A1779D180497870ED
:100DA600E2640170087BFF7A1779E2803A7870E294
:100DB600640270087BFF7A1779F3802B7870E264FF
:100DC6000370087BFF7A187904801C7870E264044B
:100DD60070087BFF7A187915800D7870E2640570CB
:100DE6000B7BFF7A1879267F01121CA3121C821234
:100DF6001CA37BFE7A00792F7F03121CA37BFF7A4C
:100E06001879377F04121CA3121D82786FEFF27EC9
:100E1600006401700E08E204F2E264066002A19723
:090E2600F2A197EF64024E705D29
:100E2F007870E2FF7E00700778727406F2803CEFF4
:100E3F0064014E700778727404F2802FEF64024ED3
:100E4F00700778727403F28022EF64034E70077894
:100E5F00727402F28015EF64044E7006787204F219
:100E6F008009EF64054E70037872F27872E2FF2406
:0B0E7F004FF8E204FE7871F2121C51E3
:0C0E8A00A197786FE2FF7E0064037059AE
:100E960008E2FD7C00700778727406F2803CED640F
:100EA600014C700778727404F2802FED64024C7066
:100EB6000778727403F28022ED64034C700778722F
:100EC6007402F28015ED64044C7006787204F280A8
:100ED60009ED64054C70037872F27872E2FD244FD6
:070EE600F8E27871121C997B
:100EED00A197EF64044E6002A197121C72786EF206
:100EFD00121C375017E2FE9018B593FF744F2EF861
:100F0D00E2FD121FA0786EE204F280E47D807F8EF8
:030F1D00021FA010
:10119A00E4786FF21220A2E4FFEF121C3A50061212
:1011AA001C4B0F80F4121F18786FE270087BFF7ACD
:1011BA001879488049786FE2640170087BFF7A18D1
:1011CA007959803A786FE2640270087BFF7A18795D
:1011DA006A802B786FE2640370087BFF7A18797B48
:1011EA00801C786FE2640470087BFF7A18798C801F
:1011FA000D786FE26405700B7BFF7A18799D7F0189
:10120A00121CA3121C82121CA37BFE7A00792F7F68
:10121A0003121CA3121D82786EEFF27E0064017025
:10122A000E08E204F2E26406600221B2F221B2EF91
:05123A0064024E705D2E
:10123F00786FE2FF7E00700778717406F2803CEFE2
:10124F0064014E700778717404F2802FEF64024EC0
:10125F00700778717403F28022EF64034E70077881
:10126F00717402F28015EF64044E7006787104F207
:10127F008009EF64054E70037871F27871E2FF24F4
:0B128F004FF8E204FE7870F2121C51D0
:0C129A0021B2786EE2FF7E006403705900
:1012A60008E2FD7C00700778717406F2803CED64FC
:1012B600014C700778717404F2802FED64024C7053
:1012C6000778717403F28022ED64034C700778711D
:1012D6007402F28015ED64044C7006787104F28095
:1012E60009ED64054C70037871F27871E2FD244FC4
:0712F600F8E27870121C9968
:1012FD0021B2EF64044E600221B2E4FFEF121C43F1
:10130D00500F744F2FF8E2FE74182FF8EEF20F8085
:01131D00EBE4
:01131E0022AC
:10203300E4FA1220A2E4FFEFC39403748094805067
:102043001274112FF8E2FE74182FF8E2B506010A94
:0D2053000F80E4EA640370037F01227F0028
:01206000225D
:041F5A00AA05A90724
:101F5E001220A2E4FFEF121C435006121C4B0F80FE
:101F6E00F4744F2AF8E2FFE925E0FEEF2E14F21288
:101F7E001C72FCEC121C3A500EEC9018B593FF74C8
:0E1F8E004F121F9C0C80EC7D807F8E021FA0E6
:0E21260074182DF8E2FEEF25E0FFEE2F14F204
:012134002288
:0B214B0075F00A84E5F02430F2082251
:031FFC00DFFE22E3
:10208400D3EF9400EE940040147D6E7C00ED1D703F
:0D209400011CED4C70F7EF1F70E61E80E39D
:0120A100221C
:0621850000007F50DFFEA8
:01218B002231
:1020D400D2907F02121FFCC2907F147E00122084D3
:0720E400D2907F1E021FFCD9
:101FD600E4FEFDEDC394087480948050163090FDA5
:101FE6007F08121FFCEE25E0FE3090010E2090FDCA
:051FF6000D80E0AF06C4
:011FFB0022C3
:101988001220D430900241403090FD7F32121FFC6B
:10199800121FD6786BEFF2121FD6A907121FD6AC0A
:1019A80007121FD6AB07121FD67870EFF27F1912F5
:1019B8001FFCE9FF786BE22FFFE433FEEC75830030
:1019C8002FFFE5833EFEEB2FFFE5833EFE7870E2B6
:1019D800B50719E583B50614786BE208F2AF01087C
:1019E800EFF2AF0408EFF2AF0308EFF2786CE2759C
:1019F800F00A8424307871F2786DE2787212214B03
:101A08007452F2087448F2087420F2786EE275F0A5
:101A18000A8424307876F2786FE2787712214B7452
:101A280043F27F08EFD3940F74809480500A747146
:0E1A38002FF87420F20F80EC7BFE7A0079719B
:011A4600227D
:10094600004D4AB8000D4A4C000DA5410025AAB637
:1009560000056A49007AADBD00025D5200092D47C7
:10096600005C95BA000A954E000B4A43004B55377A
:10097600000AD54A00955ABF0004BA53000A5B48DC
:1009860000652BBC00052B50000A934500474AB969
:100996000006AA4C000AD5410024DAB60004B64A7D
:1009A6000069573D000A4E51000D2646005E933AF7
:1009B600000D534D0005AA430036B53700096D4BAF
:1009C60000B4AEBF0004AD53000A4D48006D25BC0F
:1009D600000D254F000D5244005DAA38000B5A4CFD
:1009E6000000000000000000000000000000000001
:1009F60000000000000000000000000000000000F1
:100A060000000000000000000000000000000000E0
:100A160000000000000000000000000000000000D0
:100A260000000000000000000000000000000000C0
:100A360096B4A5B5A6A6878888788786A5B3A5A502
:100A4600A6A6888888788787A5B496A59696887876
:100A56007878878795B496A5969788787869788701
:100A660096B4A5B5A6A6878888788786A5B3A5A5D2
:100A7600A6A6888888788787A5B496A5A696888826
:100A86007878878795B496A59697887878697887D1
:100A960096B4A5B5A6A6878887788786A5B3A5B593
:100AA600A6A6888888788787A5B496A5A6968888F6
:100AB6007878878795B496A5969788787879788791
:100AC60096B4A5B5A5A6878887788786A5B3A5B564
:100AD600A6A6878888788787A5B496A5A6968888C7
:100AE6007878878795B496A5969788787879778762
:100AF60095B4A5B4A5A6878887788786A5C3A5B526
:100B0600A6A6878888788787A5B4A6A5A696888886
:100B160078788787A5B496A5969688787879778722
:100B260095B4A5B4A5A6978787788786A5C3A5B5E6
:100B3600A6A6878888788786A5B4A5A5A696888858
:100B460088788787A5B496A59696887878797787E2
:100B560095B4A5B4A5A69787877887960000001F49
:100B6600003B005A0078009700B500D400F301114D
:040B76000130014EFB
:100F2000EB5FFFEA5EFEE95DFDE85CFCE4FBFAF9DD
:100F3000F8C30208EE2402F58274EA3EF583120932
:100F400026E4FFFEED54F0FDE4FC78140208FF08EF
:100F5000F2789DE2FE08E2780222F208F278A9080F
:100F6000E214F9E4FFFE7D08FCA801020912240244
:100F7000F58274EA3EF58322789FE2FE08E2FBAA3E
:100F800006EA3395E0F9F822FFE2FC08C3E2FD9F90
:100F9000EE6480F8EC64809822E2FE08E278A6FF16
:100FA000ED9FF2EC9E18F222FF7898E2FB08E2FA3D
:100FB00008E2F922E224FFF218E234FFF222E224EE
:100FC00001F218E2340022F974362FF582740A3ED9
:100FD000F583E493227856E25403FE08E254C07885
:100FE000062278ABE2FE08E2F4FFEEF42278A7E2F4
:040FF000FE08E222F3
:10039D00789DEEF208EFF208ECF208EDF208EAF2C1
:0103AD00EB64
:1003AE00120F4FC333CE33CED8F9120F6E12092669
:1003BE00EF5460FFE4FEFDFC78051208FFE47B01BC
:1003CE00120F2E7021120F51C333CE33CED8F91225
:1003DE000F6E120926EF541FFFEF24FF78A4F2E4EC
:1003EE0034FF18F2801E120F51C333CE33CED8F91C
:1003FE00120F6E120926EF541FFFEF241E78A4F27F
:10040E00E43318F2789FE2FA08E2FB25E0FFEA33C4
:10041E00FE74602FF582740B3EF58308E2FE08E24F
:10042E00FF7401932FFFE4933ECF24FF78A6F2EFE3
:10043E0034FF18F2789DE2FE08E2FF7C007D041284
:10044E000855ED4C7011D3EB9402EA648094804011
:10045E000678A6120FBEF278A3E2FE08E208120F8B
:10046E00885002A14578A3120F99789FE4F20804F0
:10047E00F278A9E4F20804F2E408120F5AC004C09C
:10048E0005C006C007120F51C333CE33CED8F912B2
:10049E000F6E120936D007D006D005D004120F20E9
:1004AE0078A77002A126A12D120FED78A5120F8844
:1004BE00407578A7120F9978AA120FBE120F50C36B
:1004CE0033CE33CED8F9120F35C006C007120F78CF
:1004DE00D007D006C31208EE700E120FE2FE18F20D
:1004EE0008EFF24E7008800078A0120FBEF2120FC5
:1004FE005DC004C005C006C007120F51C333CE3312
:10050E00CED8F9120F6E120936D007D006D005D00C
:10051E0004120F2078A77007F208741DF281B6E45A
:10052E00F208741EF281B678A6E2240179A2F318BD
:10053E00E2340019F3C15678A5E2FE08E2FFC37853
:10054E00A4E29FF218E29EF2789E120FB4789FE416
:10055E00F2740C120F4FC333CE33CED8F9120F35BF
:10056E00120F2C78A97007F208740CF28006E4F2D0
:10057E0008740DF2E478AB120F5AC004C005C00621
:10058E00C007120F51C333CE33CED8F9120F6E12ED
:10059E000936D007D006D005D004120F2078A770E8
:1005AE0002C12DC134120FEDFF78A3E2FC08D31265
:1005BE000F8D407A120FED78A4120F9F78AA120FAA
:1005CE00B478ACE2700218E2700578A0120FB41283
:1005DE000F51C333CE33CED8F9120F35C006C00734
:1005EE00120F78D007D006C31208EE7008120FE271
:1005FE0018F208EFF2120F5DC004C005C006C00766
:10060E00120F51C333CE33CED8F9120F6E120936F4
:10061E00D007D006D005D004120F2078A77007F2AD
:10062E0008741DF2A1B3E4F208741EF2A1B378A30C
:10063E00E2FE08E2FFC378A8E29FFF18E29ECF24F5
:10064E000178A2F2E43F18F278A1E2FE08E2FF7808
:10065E0056EEF208EFF2AC06AD07789FE2FE08E226
:10066E007806C333CE33CED8F9FFEC4E7856F2ED82
:10067E004F120F4FC333CE33CED8F92492F5827476
:10068E00EB120F3BC006C007120F78D007D006C37F
:0C069E001208EE7004FE7F0122E4FEFF53
:0106AA00222D
:101D1B00E4789BF208F212088BFFAEF090000212EF
:101D2B0008B6FDACF09000041208B6FBAAF0120343
:101D3B009DEF4E6019120FD5CEC313CE13D8F912E7
:101D4B000FA8EF1207BA08E4F20804F28011120F81
:101D5B00D5CEC313CE13D8F9120FA8EF1207BA784A
:101D6B005608E2543F120FA8900001EF1207CC78EF
:061D7B009BE2FE08E2FFFE
:011D8100223F
:10200000788FEEF208EFF2AF0508E4F208EFF2AFD6
:102010000308E4F208EFF2788CE2F908E2FA08E249
:102020007898C9F208EAF208E9F27BFE7A00798F23
:03203000021D1B73
:021E3900AA05F8
:101E3B007C007D0C1207EEEA2FFFEC3ECF243FCF48
:101E4B0034A2FEEBC3940F748094805016C3740FAE
:101E5B009B120FC7C4540FB50106EA1425E0FF22ED
:101E6B007F0022EB640F7002FF22EB24F1120FC7ED
:0D1E7B00540FB50106EA25E014FF227F0098
:011E88002237
:030023000216CDF5
:1016CD00C0E0C0F0C083C082C0D075D000C000C0E3
:0D16DD0001C002C003C004C005C006C00764
:1016EA00209802E1B6C29878ADE599F2E214B418EE
:1016FA00004002E1A590170925E05002058373E135
:10170A0039E13DE141E145E149E14DE151E155E18F
:10171A0059E15DE162E168E170E174E178E17CE15F
:10172A0080E184E188E18CE190E194E199E19F7D97
:10173A000680277D06801E7D04801F7D0480167D1D
:10174A000380177D03800E7D02800F7D0280067D57
:10175A000180077D01E48008E4FD7F018003E4FD48
:10176A00FF121F5A80357D0680277D06801E7D0464
:10177A00801F7D0480167D0380177D03800E7D0205
:10178A00800F7D0280067D0180077D01E48008E4E8
:10179A00FD7F018003E4FDFF12212678ADE2FFC33D
:0C17AA0094197480948040047858EFF289
:1017B600D007D006D005D004D003D002D001D00087
:0B17C600D0D0D082D083D0F0D0E03231
:1020EB00759850E4F587758920758DFD758BFDD23C
:0620FB00AFD2ACD28E2230
:08217D008F993099FDC29922EF
:101B9E0002131FE493A3F8E493A34003F68001F22B
:101BAE0008DFF48029E493A3F85407240CC8C33348
:101BBE00C4540F4420C8834004F456800146F6DF17
:101BCE00E4800B010204081020408090216AE47E1C
:101BDE00019360BCA3FF543F30E509541FFEE4930C
:101BEE00A360010ECF54C025E060A840B8E493A3D3
:101BFE00FAE493A3F8E493A3C8C582C8CAC583CAFE
:101C0E00F0A3C8C582C8CAC583CADFE9DEE780BEB5
:01217300006B
:1006AB00E709F608DFFA8046E709F208DFFA803E31
:1006BB0088828C83E709F0A3DFFA8032E309F6081E
:1006CB00DFFA8078E309F208DFFA807088828C8386
:1006DB00E309F0A3DFFA806489828A83E0A3F6083A
:1006EB00DFFA805889828A83E0A3F208DFFA804C14
:1006FB0080D280FA80C680D4806980F280338010EB
:10070B0080A680EA809A80A880DA80E280CA803353
:10071B0089828A83ECFAE493A3C8C582C8CCC583CB
:10072B00CCF0A3C8C582C8CCC583CCDFE9DEE7809B
:10073B000D89828A83E493A3F608DFF9ECFAA9F01A
:10074B00EDFB2289828A83ECFAE0A3C8C582C8CC70
:10075B00C583CCF0A3C8C582C8CCC583CCDFEADE89
:10076B00E880DB89828A83E493A3F208DFF980CCEB
:10077B0088F0EF60010E4E60C388F0ED2402B404E4
:10078B000050B9F582EB2402B4040050AF2323458B
:06079B0082239006FB73AF
:1007A100BB010689828A83E0225002E722BBFE0256
:0907B100E32289828A83E4932289
:1007BA00BB010689828A83F0225002F722BBFE011E
:0207CA00F32218
:1007CC00F8BB010DE58229F582E5833AF583E8F063
:1007DC00225006E92582C8F622BBFE05E92582C80F
:0207EC00F222F7
:1007EE00EF8DF0A4A8F0CF8CF0A428CE8DF0A42E1F
:0207FE00FE22D9
:10080000BC000BBE0029EF8DF084FFADF022E4CCDC
:10081000F875F008EF2FFFEE33FEEC33FCEE9DECA5
:10082000984005FCEE9DFE0FD5F0E9E4CEFD22EDEB
:10083000F8F5F0EE8420D21CFEADF075F008EF2F35
:10084000FFED33FD4007985006D5F0F222C398FD26
:050850000FD5F0EA22C3
:10085500C2D5EC30E709B2D5E4C39DFDE49CFCEEBE
:1008650030E715B2D5E4C39FFFE49EFE120800C32E
:10087500E49DFDE49CFC800312080030D507C3E429
:060885009FFFE49EFE222D
:10088B00BB010A89828A83E0F5F0A3E02250068738
:10089B00F009E71922BBFE07E3F5F009E3192289FA
:0B08AB00828A83E493F5F0740193222D
:1008B600BB0110E58229F582E5833AF583E0F5F080
:1008C600A3E0225009E92582F886F008E622BBFE5D
:1008D6000AE92582F8E2F5F008E222E5832AF583A3
:0808E600E993F5F0A3E9932268
:1008EE00EB9FF5F0EA9E42F0E99D42F0E89C45F060
:0108FE0022D7
:1008FF00E8600FECC313FCED13FDEE13FEEF13FFD7
:03090F00D8F122FA
:10091200E86010ECA2E713FCED13FDEE13FEEF13FB
:04092200FFD8F022E8
:10092600E493FC740193FD740293FE740393FF2217
:10093600E493F8740193F9740293FA740393FB2217
:00000001FF
