:1001DB00AA0500AFAA0600B0AA0810022FB9E3B80F
:0C01EB00E62A2FD0A1C3D72A4D50338B39
:06000300010F00010EFFD9
:10021100438E805389F0438901758A9A758CA9C2EE
:060221008DD28CD2A9224F
:09025E001202111201F7D2AF22C5
:10000E0074BA2FFF74FF3EFEEF1FAC0670011E4C3C
:03001E0070F62257
:0200B200AD0798
:1000B400C2AFD2817FE87E0312000EC2817F987E98
:1000C4000812000EE4FBEBC3940874809480502C57
:1000D400D281ED30E00F7FF47E0112000EC2817FE9
:1000E400D27E00800D7FD27E0012000EC2817FF48A
:1000F4007E0112000EEDC313FD0B80CAD281D2AF74
:0101040022D8
:08014B008B088A09890A8D0B5B
:10015300E4F50CE50CC3950B5017AB08AA09A90AE3
:10016300850C8275830012011EFF120250050C805C
:01017300E2A9
:010174002268
:10019C0012025E4394037BFF7A0179E37D14120112
:1001AC004BE50F640470FAF50F7F151200B280F165
:03000B000201757A
:06017500C0E0C0F0C0D0A4
:10017B00758A9A758CA9050DE50D75F0FA84E5F075
:0A018B007008F50DB200B280050FF8
:07019500D0D0D0F0D0E03221
:100227008F10E510B40A097F0D1202507F0A800271
:06023700AF10120250227C
:0E025000C2ACC2998F993099FDC299D2AC22EE
:10023D00120105FF600C120250740129F9E43AFA1B
:03024D0080EE221E
:030023000201BC1B
:1001BC00C0E0C0D075D000C00730980CAF99EF6488
:0F01CC003D700375C760C298D007D0D0D0E03225
:1001F7004387807598505389BF53890F438920439C
:0A0207008E40758DB8D28ED2AC2265
:03000000020026D5
:0C002600787FE4F6D8FD75812002006DA3
:10010500BB010689828A83E0225002E722BBFE02F8
:09011500E32289828A83E493222B
:10011E00BB010CE58229F582E5833AF583E0225096
:10012E0006E92582F8E622BBFE06E92582F8E222E0
:0D013E00E58229F582E5833AF583E49322FA
:1000320002019CE493A3F8E493A34003F68001F247
:1000420008DFF48029E493A3F85407240CC8C333CF
:10005200C4540F4420C8834004F456800146F6DF9E
:10006200E4800B0102040810204080900003E47E2B
:10007200019360BCA3FF543F30E509541FFEE49393
:10008200A360010ECF54C025E060A840B8E493A35A
:10009200FAE493A3F8E493A3C8C582C8CAC583CA85
:1000A200F0A3C8C582C8CAC583CADFE9DEE780BE3D
:0100090000F6
:00000001FF
