:030000000201B04A
:0C01B000787FE4F6D8FD75812002000382
:10016100AD071FED600FE4FEEEC3946474809480CC
:0501710050EE0E80F3CA
:010176002266
:03018B0012018ED0
:0F018E00E4FFEFC394017480948050030F80F35B
:01019D00223F
:10019E00C2A3D2A4D2A500000000E580339200C213
:0101AE00A5AB
:0101AF00222D
:1001290012019E40FBC2A3C2A4C2A500008F800099
:0C013900000000D2A500000000C2A522BA
:0701BC00EF4480FF0201295E
:1001450012019E40FBD2A3C2A4C2A500008F80006D
:0C015500000000D2A500000000C2A5229E
:1000E2007F381201297F011201617F0C1201297FE1
:1000F200011201617F061201297F011201617F0154
:0601020012012902016157
:0901080075F00A84E5F02430FDD5
:10011100AC05AB077F0A120161AF031201BCAF044A
:080121001201457F010201619A
:10017700D29012018EC2907F19120161D2901201A2
:040187008B02018E58
:1000B500E4FDEDC3940874809480501E3090FD12C9
:1000C500018B12018EE4FE3090010E2090FDE50CAF
:0C00D50025E0F50CEE420C0D80D8AF0CBD
:0100E10022FC
:10006600120177D2902090463090FD2090FD12002C
:10007600B58F0D1200B5A9071200B5AC071200B571
:10008600AB071200B5AE07C290E4FDEDC39407744A
:10009600809480500612018E0D80F0D290E50D29D5
:0E00A6002C2BB50609850D08890A8C098B0BD9
:0100B4002229
:100003001200E21200667D52E4FF1201117D3A7F75
:1000130001120111E50875F00A842430FD7F0212F4
:100023000111E5087F031201087D257F04120111E8
:100033007D547F401201117D3A7F41120111E50980
:1000430075F00A842430FD7F42120111E5097F43D4
:100053001201087DDF7F441201117D437F451201A8
:030063001180A069
:00000001FF
